:02000000F42BDF
:100588004E088A004F088200C4228000840A0408AA
:100598004D0603190034CF0A0319CE0AC82A83125C
:1005A8008C018D01013083128C0703188D0A0030ED
:1005B8008D070D08803ACF00A7304F02031DE62AA9
:1005C80010300C02031CE92AEA2AD62A0800303423
:1005D80036343634063400343F343F340034003483
:1005E80036343634413400343E343E34003400343A
:1005F8003E343E344134003477347734003430307C
:100608008400123083128E0018308F008313000884
:100618009000040A91000E08840010088000040A63
:100628008E00110884008F0B0A2B83168501860122
:100638008312AC01AD018312AA01AB010130831210
:1006480085002C088E00013003108E0DFF3E031D1F
:10065800282B03100E0D123E840083130008860019
:10066800AE01AF0101308312AE070318AF0A0030A4
:10067800AF072F08803ACF0080304F02031D462B6A
:1006880064302E02031C492B4A2B362B023083126E
:1006980085002C088E00013003108E0DFF3E031DCF
:1006A800502B03100E0D013E123E840083130008E8
:1006B8008600AE01AF0101308312AE070318AF0AFE
:1006C8000030AF072F08803ACF0080304F02031D5B
:1006D8006F2B64302E02031C722B732B5F2B04309C
:1006E800831285002C088E00013003108E0DFF3E0A
:1006F800031D792B03100E0D023E123E8400831356
:1007080000088600AE01AF0101308312AE0703185E
:10071800AF0A0030AF072F08803ACF0080304F0271
:10072800031D982B64302E02031C9B2B9C2B882BBB
:100738000830831285002C088E00013003108E0DBE
:10074800FF3E031DA22B03100E0D033E123E840034
:10075800831300088600AE01AF0101308312AE0793
:100768000318AF0A0030AF072F08803ACF00803057
:100778004F02031DC12B64302E02031CC42BC52B52
:10078800B12B01308312AA070318AB0A0030AB075C
:100798002B08803ACF0080304F02031DD52B1E3026
:1007A8002A02031CD82BD92B222B83128501860100
:1007B800D32201308312AC070318AD0A0030AD070D
:1007C8002D08803ACF0080304F02031DED2B0630F4
:1007D8002C02031CF02BF12B1F2BD3221C2B0028DF
:1007E80083134830CD000230CE00EB30CF003030DC
:0807F8008400C8228301032BD9
:00000001FF
