:02000000EA2BE9
:1006E2003F3406345B344F3466346D347D34073422
:1006F2007F346F3483128C018D01013083128C0799
:1007020003188D0A00308D070D08803ACF00A33000
:100712004F02031D8E2B28300C02031C912B922BAF
:100722007E2B08001E308400123083128E000A30A5
:100732008F00831300089000040A91000E088400C1
:1007420010088000040A8E00110884008F0B9A2B77
:10075200831686010130850083120508031DB22B22
:10076200B32BD22B9C019D0183121C08123E8400E4
:100772008313000886007B23013083129C07031831
:100782009D0A00309D071D08803ACF0080304F023D
:10079200031DCD2B0A301C02031CD02BD12BB52BF1
:1007A200AD2B09309C0000309D001C08123E8400D5
:1007B2008313000886007B23FF3083129C070318F3
:1007C2009D0AFF309D079D1FE72BE82BD62BAD2BF3
:1007D200002871239E0072239F007323A0007423BC
:1007E200A1007523A2007623A3007723A400782317
:0E07F200A5007923A6007A23A7008301932B8C
:00000001FF
