:02000000EA2BE9
:100746003F3406345B344F3466346D347D340734BD
:100756007F346F341C308400103083128C000A30D2
:100766008D00831300088E00040A8F000C08840095
:100776000E088000040A8C000F0884008D0BB42B31
:1007860083168601093083129A0000309B001A08EE
:10079600103E840083130008860006308E00133056
:1007A6008D00AD308C008C0BD62B8D0BD62B8E0B83
:1007B600D62BDD2BFF3083129A0703189B0AFF30D6
:1007C6009B079B1FE72BE82BCA2BC52B0028A323CF
:1007D6009C00A4239D00A5239E00A6239F00A7237B
:1007E600A000A823A100A923A200AA23A300AB234B
:0A07F600A400AC23A5008301AD2B85
:00000001FF
