:02000000FE2BD5
:1006CA00831686010130831286008D018E01831202
:1006DA008F019001013083128F070318900A0030AE
:1006EA0090071008803ACF0081304F02031D7F2BFC
:1006FA00F4300F02031C822B832B6F2B8312060804
:10070A008C000C0786008F019001013083128F073D
:10071A000318900A003090071008803ACF00813001
:10072A004F02031D9A2BF4300F02031C9D2B9E2BA4
:10073A008A2B013083128D0703188E0A00308E0728
:10074A000E08803ACF0080304F02031DAE2B0730CF
:10075A000D02031CB12BB22B6C2B83128D018E015F
:10076A0083128F019001013083128F070318900AB8
:10077A00003090071008803ACF0081304F02031DE5
:10078A00C82BF4300F02031CCB2BCC2BB82B8312B3
:10079A0006088C0003100C0C86008F0190010130B2
:1007AA0083128F070318900A003090071008803AC6
:1007BA00CF0081304F02031DE42BF4300F02031CDB
:1007CA00E72BE82BD42B013083128D0703188E0AEE
:1007DA0000308E070E08803ACF0080304F02031D8A
:1007EA00F82B07300D02031CFB2BFC2BB52B672BB8
:0607FA0000288301652BBD
:00000001FF
