:02000000FE2BD5
:10069600831686015B30831286008C018D01013042
:1006A60083128C0703188D0A00308D070D08803AD7
:1006B600CF00A7304F02031D622B10300C02031C23
:1006C600652B662B522B6630831286008C018D01BA
:1006D600013083128C0703188D0A00308D070D0830
:1006E600803ACF00A7304F02031D7B2B10300C023F
:1006F600031C7E2B7F2B6B2B3E30831286008C01D6
:100706008D01013083128C0703188D0A00308D0786
:100716000D08803ACF00A7304F02031D942B1030EE
:100726000C02031C972B982B842B383083128600DF
:100736008C018D01013083128C0703188D0A00305D
:100746008D070D08803ACF00A7304F02031DAD2B51
:1007560010300C02031CB02BB12B9D2B6D30831275
:1007660086008C018D01013083128C0703188D0AD7
:1007760000308D070D08803ACF00A7304F02031DC9
:10078600C62B10300C02031CC92BCA2BB62B5B30B0
:10079600831286008C018D01013083128C070318A9
:1007A6008D0A00308D070D08803ACF00A7304F0222
:1007B600031DDF2B10300C02031CE22BE32BCF2B87
:1007C6004F30831286008C018D01013083128C0715
:1007D60003188D0A00308D070D08803ACF00A73028
:1007E6004F02031DF82B10300C02031CFB2BFC2BB5
:0A07F600E82B4D2B002883014B2B4C
:00000001FF
